:02000000ff00ff
:080002004c6174746963650030
:17000a00694345637562653220323032302e31322e32373934330071
:16002100506172743a2069434534304858314b2d56513130300002
:1b003700446174653a204d617920323720323032322030313a30303a32310088
:0200520000ffad
:040054007eaa997e69
:02005800510055
:02005a0001059e
:03005c00920020ef
:03005f0062014bf0
:0300620072009099
:0300650082000016
:02006800110085
:02006a00010192
:20006c00000000000000000000000000000000000000000000000000000000000000000074
:09008c000000000000000000006b
:2000950000000000000000000000000000000000000000000000000000000000000000004b
:0a00b5000000000000000000000041
:2000bf00000000000000000000000000000000000000000000000000000000000000000021
:0900df0000000000000000000018
:2000e8000000000000000000000000000000000000000000000000000000000000000000f8
:0a01080000000000000000000000ed
:200112000000000000000000000000000000000000000000000000000000000000000000cd
:09013200000000000000000000c4
:20013b000000000000000000000000000000000000000000000000000000000000000000a4
:0a015b00000000000000000000009a
:200165000000000000040000000000001000000000000040000000001000000000000040d6
:0901850000000000000100000070
:20018e00000000000000000000000000000000000000000000000000000000000000000051
:0a01ae000000000000000000000047
:2001b800000000000004000000000000100000000000004000000000100000000000004083
:0901d8000000000000010000001d
:2001e1000000000000000000000000000000000000000000000000000000000000000000fe
:0a02010000000000000000000000f3
:20020b000000000000000000000000000000000000000000000000000000000000000000d3
:09022b00000000000000000000ca
:200234000000000000000000000000000000000000000000000000000000000000000000aa
:0a02540000000000000000000000a0
:20025e00000000000000000000000000000000000000000000000000000000000000000080
:09027e0000000000000000000077
:20028700000000000000000000000000000000000000000000000000000000000000000057
:0a02a700000000000000000000004d
:2002b10000000000000000000000000000000000000000000000000000000000000000002d
:0902d10000000000000000000024
:2002da00000000000000000000000000000000000000000000000000000000000000000004
:0a02fa0000000000000000000000fa
:200304000000000000000000000000000000000000000000000000000000000000000000d9
:09032400000000000000000000d0
:20032d00000000000000000000000000000000000040000000000000000000000000000070
:0a034d0000000000000000000000a6
:20035700000000000000000000000000000000000000000000000000000000000000000086
:090377000000000000000000007d
:2003800000000000000000000000000000000000000000000000000000000000000000005d
:0a03a0000000000000000000000053
:2003aa00000000000000000000000000000000000000000000000000000000000000000033
:0903ca000000000000000000002a
:2003d30000000000000000000000000000000000000000000000000000000000000000000a
:0a03f3000000000000000000000000
:2003fd000002000000000000000000000000000000000000000000000000000000000000de
:09041d00000000000000000000d6
:200426000000000000000000000000000000000000000000000000000000000000000000b6
:0a04460000000000000000000000ac
:2004500000000000000000000000000000000000000000000000000000000000000000008c
:0904700000000000000000000083
:20047900000020000000000000000000000000000000000000000000000000000000000043
:0a0499000000000000000000000059
:2004a300000000000000000000000000000000000000000000000000000000000000000039
:0904c30000000000000000000030
:2004cc00000000000000000000000000000000000000000000000000000000000000000010
:0a04ec000000000000000000000006
:2004f6000000000000000000000000000000000000000000000000000000000000000000e6
:09051600000000000000000000dc
:20051f000000000000000000000000000000000000000000000000000000000000000000bc
:0a053f0000000000000000000000b2
:20054900000000000000000000000000000000000000000000000000000000000000000092
:0905690000000000000000000089
:20057200000000000000000000000000000000000000000000000000000000000000000069
:0a059200000000000000000000005f
:20059c0000000000000000000000000000000000000000000000000000000000000000003f
:0905bc0000000000000000000036
:2005c500000000000000000000000000000000000000000000000000000000000000000016
:0a05e500000000000000000000000c
:2005ef000000000000000000000000000000000000000000000000000000000000000000ec
:09060f00000000000000000000e2
:200618000000000000000000000000000000000000000000000000000000000000000000c2
:0a06380000000000000000000000b8
:20064200000000000000000000000000000000000000000000000000000000000000000098
:090662000000000000000000008f
:20066b0000000000000000000000000000000000000000000000000000000000000000006f
:0a068b000000000000000000000065
:20069500000200000000000000000000000000000000000000000000000000000000000043
:0906b5000000000000000000003c
:2006be0000000000000000000000000000000000000000000000000000000000000000001c
:0a06de000000000000000000000012
:2006e8000000000000000000000000000000000000000000000000000000000000000000f2
:09070800000000000000000000e8
:200711000000200000000000000000000000000000000000000000000000000000000000a8
:0a07310000000000000000000000be
:20073b0000000000000000000000000000000000000000000000000000000000000000009e
:09075b0000000000000000000095
:20076400000000000000000000000000000000000000000000000000000000000000000075
:0a078400000000000000000000006b
:20078e0000000000000000000000000000000000000000000000000000000000000000004b
:0907ae0000000000000000000042
:2007b700000000000000000000000000000000000000000000000000000000000000000022
:0a07d7000000000000000000000018
:2007e1000000000000000000000000000000000000000000000000000000000000000000f8
:09080100000000000000000000ee
:20080a000000000000000000000000000000000000000000000000000000000000000000ce
:0a082a0000000000000000000000c4
:200834000000000000000000000000000000000000000000000000000000000000000000a4
:090854000000000000000000009b
:20085d0000000000000000000000000000000000004000000000000000000000000000003b
:0a087d000000000000000000000071
:20088700000000000000000000000000000000000000000000000000000000000000000051
:0908a70000000000000000000048
:2008b000000000000000000000000000000000000000000000000000000000000000000028
:0a08d000000000000000000000001e
:2008da000000000000000000000000000000000000000000000000000000000000000000fe
:0908fa00000000000000000000f5
:200903000000000000000000000000000000000000000000000000000000000000000000d4
:0a09230000000000000000000000ca
:20092d000002000000000000000000000000000000000000000000000000000000000000a8
:09094d00000001000000000000a0
:20095600000000000000000000000000000000000000000000000000000000000000000081
:0a0976000000001000000000000067
:20098000000000000000000000000000000000000000000000000000000000000000000057
:0909a0000000000000000000004e
:2009a90000002000000000000000000000000000000000000000000000000000000000000e
:0a09c9000000000000000000000024
:2009d300000000000000000000000000000000000000000000000000000000000000000004
:0909f300000000000000000000fb
:2009fc000000000000000000000000000000000000000000000000000000000000000000db
:0a0a1c0000000000000000000000d0
:200a26000000000000000000000000000000000000000000000000000000000000000000b0
:090a4600000000000000000000a7
:200a4f00000000000000000000000000000000000000000000000000000000000000000087
:0a0a6f00000000000000000000007d
:200a790000000000000000000000000000000000000000000000000000000000000000005d
:090a990000000000000000000054
:200aa200000000000000000000000000000000000000000000000000000000000000000034
:0a0ac200000000000000000000002a
:200acc0000000000000000000000000000000000000000000000000000000000000000000a
:090aec0000000000000000000001
:200af5000000000000000000000000000000000000000000000000000000000000000000e1
:0a0b150000000000000000000000d6
:200b1f000000000000000000000000000000000000000000000000000000000000000000b6
:090b3f00000000000000000000ad
:200b480000000000000000000000000000000000000000000000000000000000000000008d
:0a0b68000000000000000000000083
:200b7200000000000000000000000000000000000000000000000000000000000000000063
:090b92000000000000000000005a
:200b9b0000000000000000000000000000000000000000000000000000000000000000003a
:0a0bbb000000000000000000000030
:200bc50000020000000000000000000000000000000000000000000000000000000000000e
:090be50000000000000000000007
:200bee000000000000000000000000000000000000000000000000000000000000000000e7
:0a0c0e0000000000000000000000dc
:200c18000000000000000000000000000000000000000000000000000000000000000000bc
:090c3800000000000000000000b3
:200c4100000020000000000000000000000000000000000000000000000000000000000073
:0a0c61000000000000000000000089
:200c6b00000000000000000000000000000000000000000000000000000000000000000069
:090c8b0000000000000000000060
:200c9400000000000000000000000000000000000000000000000000000000000000000040
:0a0cb4000000000000000000000036
:200cbe00000000000000000000000000000000000000000000000000000000000000000016
:090cde000000000000000000000d
:200ce7000000000000000000000000000000000000000000000000000000000000000000ed
:0a0d070000000000000000000000e2
:200d11000000000000000000000000000000000000000000000000000000000000000000c2
:090d3100000000000000000000b9
:200d3a00000000000000000000000000000000000000000000000000000000000000000099
:0a0d5a00000000000000000000008f
:200d640000000000000000000000000000000000000000000000000000000000000000006f
:090d840000000000000000000066
:200d8d00000000000000000000000000000000000040000000000000000000000000000006
:0a0dad00000000000000000000003c
:200db70000000000000000000000000000000000000000000000000000000000000000001c
:090dd70000000000000000000013
:200de0000000000000000000000000000000000000000000000000000000000000000000f3
:0a0e000000000000000000000000e8
:200e0a000000000000000000000000000000000000000000000000000000000000000000c8
:090e2a00000000000000000000bf
:200e330000000000000000000000000000000000000000000000000000000000000000009f
:0a0e53000000000000000000000095
:200e5d00000200000000000000000000000000000000000000000000000000000000000073
:090e7d000000000000000000006c
:200e860000000000000000000000000000000000000000000000000000000000000000004c
:0a0ea6000000000000000000000042
:200eb000000000000000000000000000000000000000000000000000000000000000000022
:090ed00000000000000000000019
:200ed9000000200000000000000000000000000000000000000000000000000000000000d9
:0a0ef90000000000000000000000ef
:200f03000000000000000000000000000000000000000000000000000000000000000000ce
:090f2300000000000000000000c5
:200f2c000000000000000000000000000000000000000000000000000000000000000000a5
:0a0f4c00000000000000000000009b
:200f560000000000000000000000000000000000000000000000000000000000000000007b
:090f760000000000000000000072
:200f7f00000000000000000000000000000000000000000000000000000000000000000052
:0a0f9f000000000000000000000048
:200fa900000000000000000000000000000000000000000000000000000000000000000028
:090fc9000000000000000000001f
:200fd2000000000000000000000000000000000000000000000000000000000000000000ff
:0a0ff20000000000000000000000f5
:200ffc000000000000000000000000000000000000000000000000000000000000000000d5
:09101c00000000000000000000cb
:201025000000000000000000000000000000000000000000000000000000000000000000ab
:0a10450000000000000000000000a1
:20104f00000000000000000000000000000000000000000000000000000000000000000081
:09106f0000000000000000000078
:20107800000000000000000000000000000000000000000000000000000000000000000058
:0a109800000000000000000000004e
:2010a20000000000000000000000000000000000000000000000000000000000000000002e
:0910c20000000000000000000025
:2010cb00000000000000000000000000000000000000000000000000000000000000000005
:0a10eb0000000000000000000000fb
:2010f5000002000000000000000000000000000000000000000000000000000000000000d9
:09111500000000000000000000d1
:20111e000000000000000000000000000000000000000000000000000000000000000000b1
:0a113e0000000000000000000000a7
:20114800000000000000000000000000000000000000000000000000000000000000000087
:091168000000000000000000007e
:2011710000002000000000000000000000000000000000000000000000000000000000003e
:0a1191000000000000000000000054
:20119b00000000000000000000000000000000000000000000000000000000000000000034
:0911bb000000000000000000002b
:2011c40000000000000000000000000000000000000000000000000000000000000000000b
:0a11e4000000000000000000000001
:2011ee000000000000000000000000000000000000000000000000000000000000000000e1
:09120e00000000000000000000d7
:201217000000000000000000000000000000000000000000000000000000000000000000b7
:0a12370000000000000000000000ad
:2012410000000000000000000000000000000000000000000000000000000000000000008d
:0912610000000000000000000084
:20126a00000000000000000000000000000000000000000000000000000000000000000064
:0a128a00000000000000000000005a
:2012940000000000000000000000000000000000000000000000000000000000000000003a
:0912b40000000000000000000031
:2012bd000000000000000000000000000000000000400000000000000000000000000000d1
:0a12dd000000000000000000000007
:2012e7000000000000000000000000000000000000000000000000000000000020000000c7
:09130700000000000000000000dd
:201310000000000000000000000000000000000000000000000000000000000001000000bc
:0a13300000000000000000000000b3
:20133a00000000000000000000000000000000000000000000000000000000000000000093
:09135a000000000000000000008a
:2013630000000000000000000000000000000000000000000000000000000000000000006a
:0a1383000000000000000000000060
:20138d0000020000000000000000000000000000000000000000000000000000000000003e
:0913ad0000000000000000000037
:2013b600000000000000000000000000000000000000000000000000000000000000000017
:0a13d600000000000000000000000d
:2013e0000000000000000000000000000000000000000000000000000000000000000000ed
:09140000000000000000000000e3
:201409000000200000000000000000000000000000000000000000000000000000000000a3
:0a14290000000000000000000000b9
:20143300000000000000000000000000000000000000000000000000000000000000000099
:0914530000000000000000000090
:20145c00000000000000000000000000000000000000000000000000000000000000000070
:0a147c000000000000000000000066
:20148600000000000000000000000000000000000000000000000000000000000000000046
:0914a6000000000000000000003d
:2014af0000000000000000000000000000000000000000000000000000000000000000001d
:0a14cf000000000000000000000013
:2014d9000000000000000000000000000000000000000000000000000000000000000000f3
:0914f900000000000000000000ea
:201502000000000000000000000000000000000000000000000000000000000000000000c9
:0a15220000000000000000000000bf
:20152c0000000000000000000000000000000000000000000000000000000000000000009f
:09154c0000000000000000000096
:20155500000000000000000000000000000000000000000000000000000000000000000076
:0a157500000000000000000000006c
:20157f000070000000000000000000000000000000000000000000000000000000000000dc
:09159f0000000000000000000043
:2015a80000040000000000000000000000000000000000000000000000000000000000001f
:0a15c8000000000000000000000019
:2015d2003000000000000000000000000000000000000000000000000000000000000000c9
:0915f200000000000000000000f0
:2015fb000000000000000000000000000000000000000000000000000000000000000000d0
:0a161b0000000000000000000000c5
:201625000003000000000000000000000000000000000000000000000000000000000000a2
:091645000000000000000000009c
:20164e0000000000000000000000000000000000000000000000000000000000000000007c
:0a166e000000000000000000000072
:20167800000000000000000000000000000000000000000000000000000000000000000052
:0916980000000000000000000049
:2016a100000000000000000000000000000000000000000000000000000000000000000029
:0a16c100000000000000000000001f
:2016cb000000000000000000000000000000000000000000000000000000000000000000ff
:0916eb00000000000000000000f6
:2016f4000000000000000000000000000000000000000000000000000000000000000000d6
:0a17140000000000000000000000cb
:20171e000000000000000000000000000000000000000000000000000000000000000000ab
:09173e00000000000000000000a2
:2017470008000000000000000000000000000000000000000000000000000000000000007a
:0a1767000000000000000000000078
:20177100000000000000000000000000000000000000000000000800000000000000000050
:091791000000000000000000004f
:20179a001000000000000000000000000000000000000000000001400000000000000000de
:0a17ba000000000000000000000025
:0217c400000023
:0217c60011010f
:0217c80001011d
:2017ca000000020000000000000800000000000020000000000800000000000020000000ad
:0917ea0000000080000000000076
:2017f3000000000000000000000000000000000000000000000000000000000000000000d6
:0a18130000000000000000000000cb
:20181d00000001000000000000040000000000001000000000040000000000001002c000c0
:09183d000000004003000000005f
:2018460000000000000000000000000000000000000000000000000000000000000036004c
:0a1866000000000000000000000078
:201870000000020020000800000800000020000020000000400800800020000020000000de
:09189000c000008000000100000e
:2018990000000000024000c00000000000010000000000000c000005000300000000000018
:0a18b90004000000000000300000f1
:2018c3000000000000040000000000901000000000000040000000001000000000000040d1
:0918e300000000000001000000fb
:2018ec000000000000000000000000080000000000000000000000000000000000000000d4
:0a190c0000000000000000000000d1
:2019160000000000000400000000000010000000000060400000000030000000000000c00d
:091936000000000007030000009e
:20193f00000000000000000000000000000100000000000000000000000000000000000087
:0a195f00000000000000000000007e
:2019690000000000000000000000000000000000000000000000000000100000000000004e
:0919890040000000030001c00051
:201992000000000000000000000000000000000000000000000080000000000002000000b3
:0a19b2000c00000800800014000083
:2019bc0000000000000000000000000000000000000000000000000000000000000000000b
:0919dc0000000000000000000002
:2019e5000000000000000000000000000001000000000000000040000000000001000000a0
:0a1a050000000004000000000000d3
:201a0f000000000000040000000000001000000000000040000000f0100000000000004023
:091a2f00000000000001000000ad
:201a3800000000000000000000000000000000000000000000008008000000000200000004
:0a1a5800000000080000000000007c
:201a620000000000900000000000000016ba00000000000000800000000000000000000084
:091a82000000000000000000005b
:201a8b000000000000000000000000000078824000000000000400000000000000000000fd
:0a1aab000000000000000000000031
:201ab500000000000000000000000000000000000000000000000000000000000000000011
:091ad50000000000000000000008
:201ade000000000000000000000000000000000000000000000000000000000000000000e8
:0a1afe0000000000000000000000de
:201b080000000000010000000000000016b5a0000000000000000000000000000000000051
:091b2800000000000000000000b4
:201b31000000000000080000000000000078144100000000000000000000000000000000bf
:0a1b5100000000000000000000008a
:201b5b00000200001080000000000000069020000000000000000000000000000000000022
:091b7b0000000000000000000061
:201b8400000000000000000000000000034b3860000000000000000000000000000000005b
:0a1ba4000000000000000000000037
:201bae0000000000000000000000000016b4920000000000000000000000000000000000bb
:091bce000000000000000000000e
:201bd700000020000000000000000000007890400000000000000100000000000000000085
:0a1bf70000000000000000000000e4
:201c01000000000000037530000002c34000000000000000000000400000000000000000d6
:091c2100000000000000000000ba
:201c2a000000000000007f08100000200400000000000000000000200000000000000000bf
:0a1c4a000000000000000000000090
:201c54000000200000000000008402c3400000000000000000800000000000000000000047
:091c740000000000000000000067
:201c7d0000000080000000000002a0200400000000000000000200000000000000000000ff
:0a1c9d00000000000000000000003d
:201ca7000000000000000000000000000699200000000000000000000005504000000000c9
:091cc70000000000000000000014
:201cd000000000000000000000000000034b854000000000000000000148554040000000c3
:0a1cf00000000000000000000000ea
:201cfa000000000000000000000000000000000000000000008000400200f0000000000018
:091d1a00000000000000000000c0
:201d230000000000000000000000800000000000000000000004002061e8f0c00000000003
:0a1d43000000000000000000000096
:201d4d000000000000000000000000000000000000000000000000400200f0040000000040
:091d6d000000000000000000006d
:201d76000000000000000000000000000000000000000000000000260168f0c0000000000e
:0a1d96000000000000000000000043
:201da0000000000000000000000000000000000000000000000000000000f0000000000033
:091dc0000000000000000000001a
:201dc9000000000000000000000000000000000000000000000000000168f0c000000000e1
:0a1de90000000000000000000000f0
:201df3000002000000000000000000000000000000000000000000000000f00000000000de
:091e1300000000000000000000c6
:201e1c0000000000000000000000000000000000000000000000000001e8f0c0000000000d
:0a1e3c00000000000000000000009c
:201e46000000000000000000000000000000000000000000000000020200f0000000000088
:091e660000000000000000000073
:201e6f000000200000000000000000000000000000000000000000060548f0c00000000030
:0a1e8f000000000000000000000049
:201e99000000000000000000000000000000000000000000000000020200f0000000000035
:091eb90000000000000000000020
:201ec2000000000000000000000000000000000000000000000000006548f0c000000000a3
:0a1ee20000000000000000000000f6
:201eec000000000000000000000008000000000000000000008000000000f000000000005e
:091f0c00000000000000000000cc
:201f150000000000000000000000010000000000000000000002000001c8f0c80000000028
:0a1f350000000000000000000000a2
:201f3f000000000000000000000000000000000004000000000000000000f040000000004e
:091f5f0000000000000000000079
:201f680000000000000000000000000000000000000000000000000001c8f0c000000000e0
:0a1f8800000000000000000000004f
:201f920000000000000000000000024035e0900000000000008000400200f000000090bf47
:091fb2008000000800000000009e
:201fbb00040000000000000000000020005db041000000000004002061e8f0c0000018a1be
:0a1fdb00b20000000000000000004a
:201fe5008000000000a00000000000102cf0000000000000000000400200f000000d0cba8b
:09200500000000000000000000d2
:20200e0000000000058100000000000060ca400000000000000000260168f0c0000000196a
:0a202e006600000000000000000042
:2020380008000000000d2d300000000275e3820000000000000000000000f000000d99f2b2
:09205800800000000000000000ff
:20206100048000000000960150000000045d704000000000000000000168f0c000005195e4
:0a20810078200000000000000000bd
:20208b000002000050096008000000022d8a000000000000000000000000f00000091b00a5
:0920ab000000000000000000002c
:2020b40000000000081a56ce1000000667ea8250000000000000000001e8f0c00002f0a062
:0a20d4000000000000000000000002
:2020de000000000000a00000000000002e00a09000000000000000020200f000000000b63a
:0920fe0040000000000000000099
:202107000000300000000000000000140148504000000000000000060548f0c00000000b8d
:0a2127007c20000000000000000012
:20213100086400009090000000000042b4d2109000000000000000020200f0800005000021
:0921510000000000000000000085
:20215a00048640000801000000000020280812c000000000000000006548f0c00000d8003b
:0a217a00000000000000000000005b
:2021840098002000500f35900080000024c2101000000000008000000000f00002050a0058
:0921a40000000000000000000032
:2021ad00000000800000730c18020014000812c0000000000002000001c8f0c00000d9b007
:0a21cd000000000000000000000008
:2021d70000020000909000000000014034a0501000000000000000000000f0400007001307
:0921f700000000000000000000df
:20220000040000000801000000000000295950c0000000000000000001c8f0c0000081a382
:0a222000760000000000000000003e
:20222a0000000000000d3d20000000022700000000000000008000400200f0000000090046
:09224a003c040000140000000037
:2022530004000000001ab60890000000066a2002000000000004002061e8f0c00000001040
:0a22730023c000000200000000007c
:20227d008040000000a92940000000402d80000000000000000000000200f000000000038d
:09229d0043c0000000280000000d
:2022a60000060000000132901000002001db400000000000000000060168f0c000000000e4
:0a22c6006c3e000000004000000024
:2022d0000c000000000d3e0c000000002705000000000000000000000000f0000000080364
:0922f000c00000003400000000f1
:2022f90004800000001ab63810000000026a000000000000000000000168f0c00000001094
:0a23190004020000020000000000b2
:20232300000200005009000c000000020000000000000000000000000000f000000000023f
:09234300c00000000000000000d1
:20234c00000000000d8013005080000604000000000000000000000001e8f0c0000000005e
:0a236c000002000000000000000065
:202376000040000000800154000001c2a7a2400000000000000000020200f00400050002e7
:0923960000000008000000000036
:20239f000006300000011a15400000207e6bb80000000000000000060548f0c00000800034
:0a23bf00040200000000000000000e
:2023c900080000001800803c00000002b503000000000000002000420200f00000001002f8
:0923e9000000000000436c6700d5
:2023f20004c000000f00723c200002167f6a204200000000000000346548f0c0000000a096
:0a2412000002000000061df9d008ca
:20241c00800020001000003c00800142e7f0000000000000008000000000f00000109b02fd
:09243c0040000000000000000057
:20244500000000800800323c200200207a6b8000000000000002000039c8f0c0001050a027
:0a2465000402000000000000000067
:20246f000002080008f0fc3c0020000034a03000040000000020000001a0f000000d00022b
:09248f0040008000000000000084
:202498000400000007005f7c20000000036c014000000000000000000158f0c00000000065
:0a24b8000402000000000000000014
:2024c2000000000000000000000000000000000000000000000000000000000000000800f2
:0924e200000000000000000000f1
:2024eb00000000000000000000000000000000000000000000000000280000000000001099
:0a250b0000000000000000000000c6
:202515000000000000000000000000000000000000000000000000000fa000008000087cf3
:0925350014420000000000000047
:20253e0000000000000000000000000000000000000000000000000002ea0800000018175a
:0a255e00b8050800000000000000ae
:202568000000000000000000000000000000000000000000000001c4000000000000005638
:0925880052800000004000000038
:20259100000000000000000000000000000000000000000000000000700000000000180999
:0a25b100633c0000000280000000ff
:2025bb0000020000000000000000000000000000000000000000000280000000000000106c
:0925db0016800000000000000061
:2025e40000068000000000000000000000000000000000000000000004000000000000004d
:0a2604000295000000000000000035
:20260e000000000000000000000000000000000000000000000000000000000000010004a7
:09262e003c000000000000000067
:202637000000200000000000000000000000000000000000000000000000000000008000e3
:0a26570063c1000000000000000055
:20266100080000000000000000000000000000000000000000000022c0000000000000046b
:0926810028c2000000280000003e
:20268a000440000000000000000000000000000000000000000000140000000000000003d5
:0a26aa00ba8d080000004000000097
:2026b4008000000000000000000000000000000000000000000000000300501200010e0012
:0926d40001400000002800000094
:2026dd0000000000000000000000000000000000000000000000000000de05000800801161
:0a26fd00601400000000400000001f
:2027070000020000000000000000000000000000000000000020000000000000800b000005
:0927270000000000000270a00097
:20273000040000000000000000000000000000000000000000000000000000000000818084
:0a27500000000000000035cfa004d7
:20275a00000000000000000000000000000000000000000000000000000000020000000c51
:09277a00258200000000000000af
:20278300000000000000000000000000000000000000000000000000000000003000000501
:0a27a3006a59000000000000000069
:2027ad0000000000000000000000000000000000000000000000000000000000000000000c
:0927cd0000000000000000000003
:2027d6000000000000000000000000000000000000000000000000000000000000000000e3
:0a27f60000000000000000000000d9
:202800000000000000000000000000000000000000000000000000000000000000000000b8
:09282000000000000000000000af
:2028290000000000000000000000000000000000000000000000000000000000000000008f
:0a2849000000000000000000000085
:20285300000200000000000000000000000000000000000000000000000000000000000063
:092873000000000000000000005c
:20287c0000000000000000000000000000000000000000000000000000000000000000003c
:0a289c000000000000000000000032
:2028a60000000000000000000000000000000000000000000000000000000000000000040e
:0928c60003c20000000000000044
:2028cf00000020000000000000000000000000000000000000000000000000000000018048
:0a28ef00283d00000000000000007a
:2028f9000000000000000000000000000000000000000000000000000000000000010000be
:09291900000000000000000000b5
:20292200000000000000000000000000000000000000000000000000000000000000818094
:0a294200000000000000000000008b
:20294c00000000000000000000000000000000000000000000000000000000020000000069
:09296c0000000000000000000062
:2029750000000000000000000000000000000000000000000000000000000000080000003a
:0a2995000000000000000000000038
:20299f00000000000000000000000000000000000400000000000000000000000000000014
:0929bf00154300000000000000b7
:2029c8000000000000000000000000000000000000000000000000000000000000000005ea
:0a29e800215500000000000000006f
:2029f200000000000000000000000000000000000000000000000002a600200200010008f2
:092a120003c000000000000000f8
:202a1b000000000000000000000000000000000000000000000000006cce00023000818727
:0a2a3b00a3c300000000000000002b
:202a4500000000000000000000000000000000000000000000000140169000000001000881
:092a650003c000000000000000a5
:202a6e0000000000000000000000000000000000000000000000003600ee0800000098057f
:0a2a8e00a3c30000000000000000d8
:202a980000000000000000000000000000000000000000000000000287c0000000000000d5
:092ab80003c00000000000000052
:202ac1000000000000000000000000000000000000000000000000162eff8000000000052d
:0a2ae100a3c3000000000000000085
:202aeb000002000000000000000000000000000000000000000000029dd00000000000005a
:092b0b0003c040000000000000be
:202b140000000000000000000000000000000000000000000000000005d8080000000007b5
:0a2b3400a3c3000000000000000031
:202b3e0000000000000000000000000000000000000000000000002026f010000000080821
:092b5e0003c000000000000000ab
:202b670000002000000000000000000000000000000000000000000603fb000000001815fd
:0a2b870023c300000000000000005e
:202b91000000000000000000000000000000000000000000000000200000000000000808f4
:092bb10003c00000000000000058
:202bba0000000000000000000000000000000000000000000000000600000000000001955f
:0a2bda0023c300000000000000000b
:202be40000000000000000000000000000000000000000000000002404c4200200000000c3
:092c040003c00000000000000004
:202c0d000000000000000000000000000000000000000000000000046201810008000007b0
:0a2c2d0023c30000000000000000b7
:202c370000000000000000000000000000000000000000000000000240000000000000003b
:092c570003c100000000000000b0
:202c60000000000000000000000000000000000000000000000000006400000000000007e9
:0a2c800023c3000000000000000064
:202c8a000000000000000000000000000000000000000000000001424000000200010d088f
:092caa0003c0000000000000005e
:202cb300000000000000000000000000000000000000000000000036000000003000819783
:0a2cd300a3c3000000000000000091
:202cdd00000000000000000000000000000000000000000000000000268da0040000000878
:092cfd0003c0000000000000000b
:202d06000000000000000000000000000000000000000000000000002a6c85400000180535
:0a2d2600a3c300000000000000003d
:202d30000000000000000000000000000000000000000000000001628000000000000e0092
:092d500003c000000000000000b7
:202d590000000000000000000000000000000000000000000000002404000000000000052d
:0a2d7900a3c30000000000000000ea
:202d8300000200000000000000000000000000000000000000000000060300000000000025
:092da30003c00000000000000064
:202dac000000000000000000000000000000000000000000000000066978ff030000000717
:0a2dcc00a3c3000000000000000097
:202dd6000000000000000000000000000000000000000000000000020e02000000000808bb
:092df60003c00000000000000011
:202dff0000002000000000000000000000000000000000000000000007d85a02000018152c
:0a2e1f0023c30000000000000000c3
:202e29000000000000000000000000000000000000000000000000201ddc30000000080830
:092e490003c000000000000000bd
:202e520000000000000000000000000000000000000000000000001403edc1000000019505
:0a2e720023c3000000000000000070
:202e7c000000000000000000000000000000000000000000008003663c000002000000000f
:092e9c0003c0000000000000006a
:202ea5000000000000000000000000000000000000000000000200142eea4002080000078e
:0a2ec50023c300000000000000001d
:202ecf000000000000000000000000000000000004000000000000402df400000000000b73
:092eef004000000000000000009a
:202ef80000000000000000000000000000000000000000000000000002ec000000000007c5
:0a2f18008402000000000000000029
:022f22000000ad
:022f2400110298
:022f26000101a7
:202f2800000000000000000000000000000000000000000000000000000000000000000089
:092f480000000000000000000080
:202f5100000000000000000000000000000000000000000000000000000000000000000060
:0a2f71000000000000000000000056
:202f7b00000000000000000000000000000000000000000000000000000000000000000036
:092f9b000000000000000000002d
:202fa40000000000000000000000000000000000000000000000000000000000000000000d
:0a2fc4000000000000000000000003
:202fce000000000000000000000000000000000000000000000000000000000000000000e3
:092fee00000000000000000000da
:202ff7000000000000000000000000000000000000000000000000000000000000000000ba
:0a30170000000000000000000000af
:203021000000000000080000000000002000000000080000000000002000000000000080bf
:0930410000000000000200000084
:20304a00000000000000000000000000000000000000000000000000000000000000000066
:0a306a00000000000000000000005c
:2030740000000000000800000000000020000000000800000000000020000000000000806c
:0930940000000000000200000031
:20309d00000000000000000000000000000000000000000000000000000000000000000013
:0a30bd000000000000000000000009
:2030c7000000000000000000000000000000000000000000000000000000000000000000e9
:0930e700000000000000000000e0
:2030f0000000000000000000000000000000000000000000000000000000000000000000c0
:0a31100000000000000000000000b5
:20311a00000000000000000000000000000000000000000000000000000000000000000095
:09313a000000000000000000008c
:2031430000000000000000000000000000000000000000000000000000000000000000006c
:0a3163000000000000000000000062
:20316d00000000000000000000000000000000000000000000000000000000000000000042
:09318d0000000000000000000039
:20319600000000000000000000000000000000000000000000000000000000000000000019
:0a31b600000000000000000000000f
:2031c0000000000000000000000000000000000000000000000000000000000000000000ef
:0931e000000000000000000000e6
:2031e9000000000000000000000000000000000000000000080000000000000000000000be
:0a32090000000000000000000000bb
:2032130000000000000000000000000000000000000000000000000000000000000000009b
:0932330000000000000000000092
:20323c00000000000000000000000000000000000000000000000000000000000000000072
:0a325c000000000000000000000068
:20326600000000000000000000000000000000000000000000000000000000000000000048
:093286000000000000000000003f
:20328f0000000000000000000000000000000000000000000000000000000000000000001f
:0a32af000000000000000000000015
:2032b9000002000000000000000000000000000000000000000000000000000000000000f3
:0932d900000000000000000000ec
:2032e2000000000000000000000000000000000000000000000000000000000000000000cc
:0a33020000000000000000000000c1
:20330c000000000000000000000000000000000000000000000000000000000000000000a1
:09332c0000000000000000000098
:20333500000020000000000000000000000000000000000000000000000000000000000058
:0a335500000000000000000000006e
:20335f0000000000000000000000000000000000000000000000000000000000000000004e
:09337f0000000000000000000045
:20338800000000000000000000000000000000000000000000000000000000000000000025
:0a33a800000000000000000000001b
:2033b2000000000000000000000000000000000000000000000000000000000000000000fb
:0933d200000000000000000000f2
:2033db000000000000000000000000000000000000000000000000000000000000000000d2
:0a33fb0000000000000000000000c8
:203405000000000000000000000000000000000000000000000000000000000000000000a7
:093425000000000000000000009e
:20342e0000000000000000000000000000000000000000000000000000000000000000007e
:0a344e000000000000000000000074
:20345800000000000000000000000000000000000000000000000000000000000000000054
:093478000000000000000000004b
:2034810000000000000000000000000000000000000000000000000000000000000000002b
:0a34a1000000000000000000000021
:2034ab00000000000000000000000000000000000000000000000000000000000000000001
:0934cb00000000000000000000f8
:2034d4000000000000000000000000000000000000000000000000000000000000000000d8
:0a34f40000000000000000000000ce
:2034fe000000000000000000000000000000000000000000000000000000000000000000ae
:09351e00000000000000000000a4
:20352700000000000000000000000000000000000000000000000000000000000000000084
:0a354700000000000000000000007a
:20355100000200000000000000000000000000000000000000000000000000000000000058
:0935710000000000000000000051
:20357a00000000000000000000000000000000000000000000000000000000000000000031
:0a359a000000000000000000000027
:2035a400000000000000000000000000000000000000000000000000000000000000000007
:0935c400000000000000000000fe
:2035cd000000200000000000000000000000000000000000000000000000000000000000be
:0a35ed0000000000000000000000d4
:2035f7000000000000000000000000000000000000000000000000000000000000000000b4
:09361700000000000000000000aa
:2036200000000000000000000000000000000000000000000000000000000000000000008a
:0a3640000000000000000000000080
:20364a00000000000000000000000000000000000000000000000000000000000000000060
:09366a0000000000000000000057
:20367300000000000000000000000000000000000000000000000000000000000000000037
:0a369300000000000000000000002d
:20369d0000000000000000000000000000000000000000000000000000000000000000000d
:0936bd0000000000000000000004
:2036c6000000000000000000000000000000000000000000000000000000000000000000e4
:0a36e60000000000000000000000da
:2036f0000000000000000000000000000000000000000000000000000000000000000000ba
:09371000000000000000000000b0
:20371900000020000000000000000000000000000000000008000000000000000000000068
:0a3739000000000000000000000086
:20374300000000000000000000000000000000000000000000000000000000000000000066
:093763000000000000000000005d
:20376c0000000000000000000000000000000000000000000000000000000000000000003d
:0a378c000000000000000000000033
:20379600000000000000000000000000000000000000000000000000000000000000000013
:0937b6000000000000000000000a
:2037bf000000000000000000000000000000000000000000000000000000000000000000ea
:0a37df0000000000000000000000e0
:2037e9000000000000000000000000000000000000000000000000000000000000000000c0
:09380900000000000000000000b6
:20381200000000000000000000000000000000000000000000000000000000000000000096
:0a383200000000000000000000008c
:20383c0000000000000000000000000000000000000000000000000000000000000000006c
:09385c0000000000000000000063
:20386500080024000000000000000000000000000000000000000000000000000000000017
:0a3885000000000000000000000039
:20388f00000000000000000000000000000000000000000000000000000000000000000019
:0938af0000000000000000000010
:2038b8000000000000000000000000000000000000000000000000000000000000000000f0
:0a38d80000000000000000000000e6
:2038e2000000000000000000000000000000000000000000000000000000000000000000c6
:09390200000000000000000000bc
:20390b00080000000000000000000000000000000000000000000000000000000000000094
:0a392b000000000000000000000092
:20393500000000000000000000000000000000000000000000000000000000000000000072
:0939550000000000000000000069
:20395e000000000000000000700000000000000000000000000000000000000000000000d9
:0a397e00000000000000000000003f
:2039880000000000000000000000000000000000000000000000000000000000000000001f
:0939a80000000000000000000016
:2039b1000000200000000000000000000000000000000000000000000000000000000000d6
:0a39d10000000000000000000000ec
:2039db000000000000000000000000000000000000000000000000000000000000000000cc
:0939fb00000000000000000000c3
:203a04000000000000000000000000000000000000000000000000000000000000000000a2
:0a3a24000000000000000000000098
:203a2e00000000000000000000000000000000000000000000000000000000000000000078
:093a4e000000000000000000006f
:203a570000000000000000000000000000000000000000000000000000000000000000004f
:0a3a77000000000000000000000045
:203a8100000000000000000000000000000000000000000000000000000000000000000025
:093aa1000000000000000000001c
:203aaa000000000000000000000000000000000000000000000000000000000000000000fc
:0a3aca0000000000000000000000f2
:203ad4000000000000000000000000000000000000000000000000000000000000000000d2
:093af400000000000000000000c9
:203afd00000020000000000000000000000000000000000000000000000000000000000089
:0a3b1d00000000000000000000009e
:203b270000000000000000000000000000000000000000000000000000000000000000007e
:093b470000000000000000000075
:203b5000000010000000000000000000000000000000000000000000000000000000000045
:0a3b7000000000000000000000004b
:203b7a0000000000000000000000000000000000000000000000000000000000000000002b
:093b9a0000000000000000000022
:203ba3000800000000000000000000000000000000000000000000000000000000000000fa
:0a3bc30000000000000000000000f8
:203bcd000000000000000000000000000000000000000000000000000000000000000000d8
:093bed00000000000000000000cf
:203bf6000000000000000000000000000000000000000000000000000000000000000000af
:0a3c160000000000000000000000a4
:203c2000000000000000000000000000000000000000000000000000000000000000000084
:093c40000000000000000000007b
:203c4900000000000000000000000000000000000000000008000000000000000000000053
:0a3c69000000000000000000000051
:203c7300000000000000000000000000000000000000000000000000000000000000000031
:093c930000000000000000000028
:203c9c00000000000000000000000000000000000000000000000000000000000000000008
:0a3cbc0000000000000000000000fe
:203cc6000000000000000000000000000000000000000000000000000000000000000000de
:093ce600000000000000000000d5
:203cef000000000000000000000000000000000000000000000000000000000000000000b5
:0a3d0f0000000000000000000000aa
:203d1900000200000000000000000000000000000000000000000000000000000000000088
:093d390000000000000000000081
:203d4200000000000000000000000000000000000000000000000000000000000000000061
:0a3d62000000000000000000000057
:203d6c00000000000000000000000000000000000000000000000000000000000000000037
:093d8c000000000000000000002e
:203d95000000200000000000000000000000000000000000000000000000000000000000ee
:0a3db5000000000000000000000004
:203dbf000000000000000000000000000000000000000000000000000000000000000000e4
:093ddf00000000000000000000db
:203de8000000000000000000000000000000000000000000000000000000000000000000bb
:0a3e080000000000000000000000b0
:203e1200000000000000000000000000000000000000000000000000000000000000000090
:093e320000000000000000000087
:203e3b00000000000000000000000000000000000000000000000000000000000000000067
:0a3e5b00000000000000000000005d
:203e650000000000000000000000000000000000000000000000000000000000000000003d
:093e850000000000000000000034
:203e8e00000000000000000000000000000000000000000000000000000000000000000014
:0a3eae00000000000000000000000a
:203eb8000000000000000000000000000000000000000000000000000000000000000000ea
:093ed800000000000000000000e1
:203ee1000000000000000000000000000000000000000000000000000000000000000000c1
:0a3f010000000000000000000000b6
:203f0b00000000000000000000000000000000000000000000000000000000000000000096
:093f2b000000000000000000008d
:203f340000000000000000000000000000000000000000000000000000000000000000006d
:0a3f54000000000000000000000063
:203f5e00000000000000000000000000000000000000000000000000000000000000000043
:093f7e000000000000000000003a
:203f870000000000000000000000000000000000000000000000000000000000000000001a
:0a3fa7000000000000000000000010
:203fb1000002000000000000000000000000000000000000000000000000000000000000ee
:093fd100000000000000000000e7
:203fda000000000000000000000000000000000000000000000000000000000000000000c7
:0a3ffa0000000000000000000000bd
:2040040000000000000000000000000000000000000000000000000000000000000000009c
:0940240000000000000000000093
:20402d00000020000000000000000000000000000000000000000000000000000000000053
:0a404d000000000000000000000069
:20405700000000000000000000000000000000000000000000000000000000000000000049
:0940770000000000000000000040
:20408000000000000000000000000000000000000000000000000000000000000000000020
:0a40a0000000000000000000000016
:2040aa000000000000000000000000000000000000000000000000000000000000000000f6
:0940ca00000000000000000000ed
:2040d3000000000000000000000000000000000000000000000000000000000000000000cd
:0a40f30000000000000000000000c3
:2040fd000000000000000000000000000000000000000000000000000000000000000000a3
:09411d0000000000000000000099
:20412600000000000000000000000000000000000000000000000000000000000000000079
:0a414600000000000000000000006f
:2041500000000000000000000000000000000000000000000000000000000000000000004f
:0941700000000000000000000046
:2041790000000000000000000000000000000000000000000800000000000000000000001e
:0a419900000000000000000000001c
:2041a3000000000000000000000000000000000000000000000000000000000000000000fc
:0941c300000000000000000000f3
:2041cc000000000000000000000000000000000000000000000000000000001000000000c3
:0a41ec0000000000000000000000c9
:2041f6000000000000000000000000000000000000000000000000000000000000000000a9
:094216000000000000000000009f
:20421f0000000000000000000000000000000000000000000000000000000000000000007f
:0a423f000000000000000000000075
:20424900000200000000000000000000000000000000000000000000000000000000000053
:094269000000000000000000004c
:204272000040000000000000000000000000000000000000000000000000000000000000ec
:0a4292000000000000000000000022
:20429c00000000000000000000000000000000000000000000000000000000000000000002
:0942bc00000000000000000000f9
:2042c5000000200000000000000000000000000000000000000000000000000000000000b9
:0a42e50000000000000000000000cf
:2042ef000000000000000000000000000000000000000000000000000000000000000000af
:09430f00000000000000000000a5
:20431800000000000000000000000000000000000000000000000000000000000000000085
:0a433800000000000000000000007b
:2043420000000000000000000000000000000000000000000000000000000000000000005b
:0943620000000000000000000052
:20436b00000000000000000000000000000000000000000000000000000000000000000032
:0a438b000000000000000000000028
:20439500000000000000000000000000000000000000000000000000000000000000000008
:0943b500000000000000000000ff
:2043be000000000000000000200000000000000000000000000000000000000000000000bf
:0a43de0000000000000000000000d5
:2043e8000000000000000000000000000000000000000000000000000000000000000000b5
:09440800000000000000000000ab
:2044110000000000000000000000000000000000000000000000000000000000000000008b
:0a4431000000000000000000000081
:20443b00000000000000000000000000000000000000000000000000000000000000000061
:09445b0000000000000000000058
:20446400000000000000000000000000000000000000000000000000000000000000000038
:0a448400000000000000000000002e
:20448e0000000000000000000000000000000000000000000000000000000000000000000e
:0944ae0000000000000000000005
:2044b7000000000000000000000000000000000000000000000000000000000000000000e5
:0a44d70000000000000000000000db
:2044e1000002000000000000000000000000000000000000000000000000000000000000b9
:09450100000000000000000000b1
:20450a00000000000000000000000000000000000000000000000000000000000000000091
:0a452a000000000000000000000087
:20453400000000000000000000000000000000000000000000000000000000000000000067
:094554000000000000000000005e
:20455d0000002000000000000000000000000000000000000000000000000000000000001e
:0a457d000000000000000000000034
:20458700000000000000000000000000000000000000000000000000000000000000000014
:0945a7000000000000000000000b
:2045b0000000000000000000000000000000000000000000000000000000000000000000eb
:0a45d00000000000000000000000e1
:2045da000000000000000000000000000000000000000000000000000000000000000000c1
:0945fa00000000000000000000b8
:20460300000000000000000000000000000000000000000000000000000000000000000097
:0a462300000000000000000000008d
:20462d0000000000000000000000000000000000000000000000000000000000000000006d
:09464d0000000000000000000064
:20465600000000000000000000000000000000000000000000000000000000000000000044
:0a467600000000000000000000003a
:02468000000038
:02468200110322
:02468400010132
:20468600000000000000000000000000000000000000000000000000000000000000000014
:0946a6000000000000000000000b
:2046af000000000000000000000000000000000000000000000000000000000000000000eb
:0a46cf0000000000000000000000e1
:2046d9000000000000000000000000000000000000000000000000000000000000000000c1
:0946f900000000000000000000b8
:20470200000000000000000000000000000000000000000000000000000000000000000097
:0a472200000000000000000000008d
:20472c0000000000000000000000000000000000000000000000000000000000000000006d
:09474c0000000000000000000064
:20475500000000000000000000000000000000000000000000000000000000000000000044
:0a477500000000000000000000003a
:20477f0000000000000800000000000020000000000800000000000020000000000000804a
:09479f000000000000020000000f
:2047a8000000000000000000000000000000000000000000000000000000000000000000f1
:0a47c80000000000000000000000e7
:2047d2000000000000080000000000002000000000080000000000002000000000000080f7
:0947f200000000000002000000bc
:2047fb0000000000000000000000000000000000000000000000000000000000000000009e
:0a481b000000000000000000000093
:20482500000000000000000000000000000000000000000000000000000000000000000073
:094845000000000000000000006a
:20484e0000000000000000000000000000000000000000000000000000000000000000004a
:0a486e000000000000000000000040
:20487800000000000000000000000000000000000000000000000000000000000000000020
:0948980000000000000000000017
:2048a1000000000000000000000000000000000000000000000000000000000000000000f7
:0a48c10000000000000000000000ed
:2048cb000000000000000000000000000000000000000000000000000000000000000000cd
:0948eb00000000000000000000c4
:2048f4000000000000000000000000000000000000000000000000000000000000000000a4
:0a4914000000000000000000000099
:20491e00000000000000000000000000000000000000000000000000000000000000000079
:09493e0000000000000000000070
:20494700000000000000000000000000000000000000000000000000000000000000000050
:0a4967000000000000000000000046
:20497100000000000000000000000000000000000000000000000000000000000000000026
:094991000000000000000000001d
:20499a000000000000000000000000000000000000000000000000000000000000000000fd
:0a49ba0000000000000000000000f3
:2049c4000000000000000000000000000000000000000000000000000000000000000000d3
:0949e400000000000000000000ca
:2049ed000000000000000000000000000000000000000000000000000000000000000000aa
:0a4a0d00000000000000000000009f
:204a170000020000000000000000000000000000000000000000000000000000000000007d
:094a370000000000000000000076
:204a4000000000000000000000000000000000000000000000000000000000000000000056
:0a4a6000000000000000000000004c
:204a6a0000000000000000000000000000000000000000000000000000000000000000002c
:094a8a0000000000000000000023
:204a93000000200000000000000000000000000000000000000000000000000000000000e3
:0a4ab30000000000000000000000f9
:204abd000000000000000000000000000000000000000000000000000000000000000000d9
:094add00000000000000000000d0
:204ae6000000000000000000000000000000000000000000000000000000000000000000b0
:0a4b060000000000000000000000a5
:204b1000000000000000000000000000000000000000000000000000000000000000000085
:094b30000000000000000000007c
:204b390000000000000000000000000000000000000000000000000000000000000000005c
:0a4b59000000000000000000000052
:204b6300000000000000000000000000000000000000000000000000000000000000000032
:094b830000000000000000000029
:204b8c00000000000000000000000000000000000000000000000000000000000000000009
:0a4bac0000000000000000000000ff
:204bb6000000000000000000000000000000000000000000000000000000000000000000df
:094bd600000000000000000000d6
:204bdf000000000000000000000000000000000000000000000000000000000000000000b6
:0a4bff0000000000000000000000ac
:204c090000000000000000000000000000000000000000000000000000000000000000008b
:094c290000000000000000000082
:204c3200000000000000000000000000000000000000000000000000000000000000000062
:0a4c52000000000000000000000058
:204c5c00000000000000000000000000000000000000000000000000000000000000000038
:094c7c000000000000000000002f
:204c850000000000000000000000000000000000000000000000000000000000000000000f
:0a4ca5000000000000000000000005
:204caf000002000000000000000000000000000000000000000000000000000000000000e3
:094ccf00000000000000000000dc
:204cd8000000000000000000000000000000000000000000000000000000000000000000bc
:0a4cf80000000000000000000000b2
:204d0200000000000000000000000000000000000000000000000000000000000000000091
:094d220000000000000000000088
:204d2b00000020000000000000000000000000000000000000000000000000000000000048
:0a4d4b00000000000000000000005e
:204d550000000000000000000000000000000000000000000000000000000000000000003e
:094d750000000000000000000035
:204d7e00000000000000000000000000000000000000000000000000000000000000000015
:0a4d9e00000000000000000000000b
:204da8000000000000000000000000000000000000000000000000000000000000000000eb
:094dc800000000000000000000e2
:204dd1000000000000000000000000000000000000000000000000000000000000000000c2
:0a4df10000000000000000000000b8
:204dfb00000000000000000000000000000000000000000080000000000000000000000018
:094e1b000000000000000000008e
:204e240000000000000000000000000000000000000000000000000000000000000000006e
:0a4e44000000000000000000000064
:204e4e00000000000000000000000000000000000000000000000000000000000000000044
:094e6e000000000000000000003b
:204e770000000000000000000000000000000000000000000000000000000000000000001b
:0a4e9700000003000000000000000e
:204ea1000000000000000000000000000000000000000000000000000000000000000000f1
:094ec100000000000000000000e8
:204eca000000000000000000000000000000000000000000000000000000000000000000c8
:0a4eea0000000000000000000000be
:204ef40000000000000000000000000000000000000000000000000000000000000000009e
:094f140000000000000000000094
:204f1d00000000000000000000000000000000000000000000000000000000000000000074
:0a4f3d00000000000000000000006a
:204f4700000200000000000000000000000000000000000000000000000000000000000048
:094f670000000000000000000041
:204f7000000000000000000000000000000000000000000000000000000000000000000021
:0a4f90000000000000000000000017
:204f9a000000000000000000000000000000000000000000000000000000000000000000f7
:094fba00000000000000000000ee
:204fc3000000200000000000000000000000000000000000000000000000000000000000ae
:0a4fe30000000000000000000000c4
:204fed000000000000000000000000000000000000000000000000000000000000000000a4
:09500d002000000000000000007a
:2050160000000000000000000000000000000000000000000000000000000000000000007a
:0a5036000040000000000000000030
:20504000000000000000000000000000000000000000000000000000000000000000000050
:0950600000001000000000000037
:20506900000000000000000000000000000000000000000000000000000000000000000027
:0a5089000000040000000000000019
:2050930000000000000000000000000000000000000000000000000000000000a0aa0000b3
:0950b300000000000000000000f4
:2050bc0000000000000000000000000000000000000000000000000000000000002aa128e1
:0a50dc0000000000000000000000ca
:2050e6000000000000000000000000000000000000000000000000000000000000f00400b6
:0951060020000000000059000027
:20510f00000000000000000000000000000000000000000000000000000000000030f178e7
:0a512f006040030000000f080000bc
:205139000000000000000000000000000000000000000000000000000000000000f0040062
:09515900200000010019500000c3
:20516200000000000000000000000000000000000000000000000000000000000030f168a4
:0a51820006400010000cf8000000c9
:20518c000000000000000000000000000000000000000000000000000000000008f000000b
:0951ac000000000103dd00a00079
:2051b500000000000000000000000000000000000000000000000000000000000030f16851
:0a51d500000000000037b581000063
:2051df000002000000000000000000000000000000000000000000000000000080f000003e
:0951ff0000004002001c00a000a9
:20520800000000000000000000000000000000000000000000000000000000000030f178ed
:0a522800000000101696d59b000050
:205232000000000000000000000000000000000000000000000000000000000000f0040464
:095252000000000003ec09a000bb
:20525b00000020000000000000000000000000000000000000000000000000000030f12ac8
:0a527b00060000000416c1980000b0
:205285000000000000000000000000000000000000000000000000000000000000f0040411
:0952a5000000000003fe000000ff
:2052ae00000000000000000000000000000000000000000000000000000000000030f12a95
:0a52ce0060000000006ff000000017
:2052d8000000000000000000000000000000000000000000000000000000000000f00000c6
:0952f800000010001410900000e9
:20530100000000000000000000000000000000000000000000000000000000000030f13833
:0a53210000000400015fe00000003e
:20532b000000000000000000000000000000000000000000800000000000000020f00000d2
:09534b0000004000000000000019
:20535400000000000000000000000000000000000000000000000000000000000030f138e0
:0a537400000000000000000000002f
:20537e000000000000000000000000000000000000000000000000000000000000f004001b
:09539e0020000000000000a00046
:2053a700000000000000000000000000000000000000000000000000000000000030f1784d
:0a53c700604003000000001b00001e
:2053d1000000000000000000000000000000000000000000000000000000000000f00400c8
:0953f10000000000000051000062
:2053fa00000000000000000000000000000000000000000000000000000000000030f1680a
:0a541a000600000000000d0800006d
:205424000000000000000000000000000000000000000000000000000000000000f0000078
:095444000000080003dc51000027
:20544d00000000000000000000000000000000000000000000000000000000000030f168b6
:0a546d0000000000040ca808000075
:205477000000000000000000000000000000000000000000000000000000000000f0000025
:09549700000040030eee00a0002d
:2054a000000000000000000000000000000000000000000000000000000000000030f17853
:0a54c0000000000020edf59a000046
:2054ca000000000000000000000000000000000000000000000000000000000000f00404ca
:0954ea000000002164290000000b
:2054f300000000000000000000000000000000000000000000000000000000000030f12a4e
:0a55130006000010a946e0000000a9
:20551d000000000000000000000000000000000000000000000000000000000000f0040476
:09553d0000000002000a09000050
:20554600000000000000000000000000000000000000000000000000000000000030f12afa
:0a55660062800010001e8198000012
:205570000000000000000000000000000000000000000000000000000000000000f000002b
:095590000000100000fdd0000035
:20559900400000000000000000000000000000000000000000000000000000000030f13859
:0a55b90000000400012ee0000010c5
:2055c300000000000000000000000000000000000000000000000000000000000000540074
:0955e3000000400000000100017d
:2055ec0000000000000000000000000000000000000000000000000000000000001000216e
:0a560c00400000000000018a0000c9
:20561600000000000000000000000000000000000000000000000000000000000000000074
:095636000000000000000000006b
:20563f0000000000000000002000000000000000000000000000000000000000000000002b
:0a565f00000003000000000000003e
:20566900000000000000000000000000000000000000000000000000000000000000000021
:0956890000000000000000000018
:205692000000000000000000000000000000000000000000000000000000000000000000f8
:0a56b20006000000000000000000e8
:2056bc000000000000000000000000000000000000000000000000000000000000000000ce
:0956dc00000000000000000000c5
:2056e5000000000000000000000000000000000000000000000000000000000000000000a5
:0a570500000000000000000000009a
:20570f00000200000000000000000000000000000000000000000000000000000000000078
:09572f0000000000000000000071
:20573800000000000000000000000000000000000000000000000000000000000000000051
:0a5758000000000000000000000047
:205762000000000000000000000000000000000000000000000000000000000000690800b6
:09578200007000000000000000ae
:20578b000000200000000000000000000000000000000000000000000000000000269538eb
:0a57ab0000000000000000000000f4
:2057b5000000000000000000000000000000000000000000000000000000000000000000d4
:0957d500000000000000000000cb
:2057de000000000000000000000000000000000000000000000000000000000000000000ab
:0a57fe006000000000000000000041
:205808000000000000000000000000000000000000000000000000000000000000f0000090
:0958280000001000000000000067
:2058310000000000000000000000000000000000000000000000000000000000002f070021
:0a5851000000040000000000000049
:20585b000000000000000000000000000000000000000000800000000000000000000000ad
:09587b0000000000000000000024
:20588400000000000000000000000000000000000000000000000000000000000000000004
:0a58a40000000000000000000000fa
:2058ae000000000000000000000000000000000000000000000000000000000000000000da
:0958ce00000000000000000000d1
:2058d7000000000000000000000000000000000000000000000000000000000000000000b1
:0a58f70000000000000000000000a7
:20590100000000000000000000000000000000000000000000000000000000000000000086
:095921000000000000000000007d
:20592a0000000000000000000000000000000000000000000000000000000000000000005d
:0a594a000000000000000000000053
:20595400000000000000000000000000000000000000000000000000000000000000000033
:095974000000000000000000002a
:20597d0000000000000000000000000000000000000000000000000000000000000000000a
:0a599d000000000000000000000000
:2059a7000002000000000000000000000000000000000000000000000000000000000000de
:0959c700000000000000000000d7
:2059d0000000000000000000000000000000000000000000000000000000000000000000b7
:0a59f00000000000000000000000ad
:2059fa0000000000000000000000000000000000000000000000000000000000000000008d
:095a1a0000000000000000000083
:205a2300000020000000000000000000000000000000000000000000000000000000000043
:0a5a43000000000000000000000059
:205a4d00000000000000000000000000000000000000000000000000000000000000000039
:095a6d0000000000000000000030
:205a7600000000000000000000000000000000000000000000000000000000000000000010
:0a5a96000000000000000000000006
:205aa0000000000000000000000000000000000000000000000000000000000000000000e6
:095ac000000000000000000000dd
:205ac9000000000000000000000000000000000000000000000000000000000000000000bd
:0a5ae90000000000000000000000b3
:205af300000000000000000000000000000000000000000000000000000000000000000093
:095b130000000000000000000089
:205b1c00000000000000000000000000000000000000000000000000000000000000000069
:0a5b3c00000000000000000000005f
:205b460000000000000000000000000000000000000000000000000000000000000000003f
:095b660000000000000000000036
:205b6f00000000000000000000000000000000000000000000000000000000000000000016
:0a5b8f00000000000000000000000c
:205b99000000000000000000000000000000000000000000000000000000000000000000ec
:095bb900000000000000000004df
:205bc2000000000000000000000000000000000000000000000000000000000000000000c3
:0a5be20000000000000000000000b9
:205bec00000000000000000000000000000000000000000000000000000000000000000099
:095c0c000000000000000000008f
:205c150000000000000000000000000000000000000000000000000000000000000000006f
:0a5c35000000000000000000000065
:205c3f00000200000000000000000000000000000000000000000000000000000000000043
:095c5f000000000000000000003c
:205c680000000000000000000000000000000000000000000000000000000000000000001c
:0a5c88000000000000000000000012
:205c92000000000000000000000000000000000000000000000000000000000000000000f2
:095cb200000000000000000000e9
:205cbb000000200000000000000000000000000000000000000000000000000000000000a9
:0a5cdb0000000000000000000000bf
:205ce50020400000000000000000000000000000000000000000000000000000000000003f
:095d050000000000000000000095
:205d0e0002070000000000000000000000000000000000000000000000000000000000006c
:0a5d2e00000000000000000000006b
:205d380000000000000000000000000000000000000000000000000000000000000000004b
:095d580000000000000000000042
:205d6100000000000000000000000000000000000000000000000000000000000000000022
:0a5d81000000000000000000000018
:205d8b00000000000000000000000000000000400000000080000000000000000000000038
:095dab00000000000000000000ef
:205db4000000000000000000000000000000000800000000000000000000000000000000c7
:0a5dd40000000000000000000000c5
:025dde000000c3
:035de00062003f1f
:035de300720080cb
:025de6001100aa
:035de80082000036
:025deb000103b2
:085ded000000000000000000ae
:085df5000000000000000000a6
:085dfd0000000000000000009e
:085e0500000000000000000095
:0261ed000000b0
:0361ef00820080ab
:0261f2000103a7
:0861f4000000000000000000a3
:0861fc0000000000000000009b
:08620400000000000000000092
:08620c0000000000000000008a
:0265f4000000a5
:0265f600110191
:0365f8008200001e
:0265fb0001039a
:0865fd00000000000000000096
:0866050000000000000000008d
:08660d00000000000000000085
:0866150000000000000000007d
:0269fd00000098
:0369ff0082008093
:026a020001038e
:086a040000000000000000008a
:086a0c00000000000000000082
:086a140000000000000000007a
:086a1c00000000000000000072
:026e040000008c
:026e0600110277
:036e080082000005
:026e0b00010381
:086e0d0000000000000000007d
:086e1500000000000000000075
:086e1d0000000000000000006d
:086e2500000000000000000065
:02720d0000007f
:03720f008200807a
:02721200010376
:08721400000000000000000072
:08721c0000000000000000006a
:08722400000000000000000062
:08722c0000000000000000005a
:02761400000074
:0276160011035e
:03761800820000ed
:02761b00010369
:08761d00000000000000000065
:0876250000000000000000005d
:08762d00000000000000000055
:0876350000000000000000004d
:027a1d00000067
:037a1f0082008062
:027a220001035e
:087a240000000000000000005a
:087a2c00000000000000000052
:087a340000000000000000004a
:087a3c00000000000000000042
:027e240000005c
:017e26002239
:027e2700a33680
:027e2900010650
:00000001FF
